:020000040800F2
:1000000000B80120C9010008830300087B03000831
:100010007F0300083D020008DD0500080000000025
:10002000000000000000000000000000BD04000807
:10003000410200080000000085030008BF0400081A
:10004000E3010008E3010008E3010008E301000800
:10005000E3010008E3010008E3010008E3010008F0
:10006000E3010008E3010008E3010008E3010008E0
:10007000E3010008E3010008E3010008E3010008D0
:10008000E3010008E3010008E3010008E3010008C0
:10009000E3010008E3010008E3010008E3010008B0
:1000A000E3010008E3010008E3010008E3010008A0
:1000B000E3010008E3010008E3010008E301000890
:1000C000E3010008E3010008E3010008E301000880
:1000D000E301000899050008E3010008E3010008B6
:1000E000E3010008E3010008E3010008E301000860
:1000F000E3010008E3010008E3010008E301000850
:10010000E3010008E3010008E3010008E30100083F
:1001100051050008E3010008E3010008E3010008BD
:10012000E3010008E3010008E3010008E30100081F
:10013000E3010008E3010008E3010008E30100080F
:10014000E3010008E3010008E3010008E3010008FF
:1001500000000000E3010008E3010008E3010008DB
:10016000E3010008E30100080000000000000000B7
:100170000000000000000000E3010008E3010008A7
:10018000E301000800000000E3010008E3010008AB
:10019000000000000000000000000000000000005F
:1001A000E3010008E3010008DFF810D000F034F8A4
:1001B00000480047ED0C0008AFF3008000B80120B4
:1001C00080F30888704700000648804706480047CB
:1001D000FEE7FEE7FEE7FEE7FEE7FEE7FEE7FEE7F7
:1001E000FEE7FEE7C1040008A901000830B50B4690
:1001F000014600202022012409E021FA02F59D4257
:1002000005D303FA02F5491B04FA02F52844151E2A
:10021000A2F10102F1DC30BD064C074D06E0E068BA
:1002200040F0010394E8070098471034AC42F6D33D
:10023000FFF7BEFF9C1A0008BC1A000800BFFEE7CB
:10024000704730B503460C461546002207E01846B5
:1002500000F008F824F812009B1C501C82B2AA423D
:10026000F5DB30BD01460888704700002DE9F05FDE
:1002700080468A461746B8F1006F02D3334880455E
:1002800001D3BDE8F09F00F0E1FBA8F1006B4FEA5D
:10029000DB25CBF34909C9F58064A74200DC3C4665
:1002A0004DE04FF0006101EBC5204A142849FFF7EB
:1002B000C8FF00260BE009EB0600254931F81000C5
:1002C0004FF6FF71884200D003E0701C86B2A64250
:1002D000F1DB00BFA6421BDA4FF0006101EBC52045
:1002E00000F038FB002608E03AF8160006EB09019A
:1002F000174A22F81100701C86B2A642F4DB4FF0B8
:10030000006101EBC5204A14114900F023F804E014
:1003100022465146404600F01DF8A74200D10FE0AA
:100320006D1C4FF000090AEB440AA044381B87B249
:10033000B7F5806F02DD4FF4806400E03C46B0E723
:1003400000BF00F0F1FA00BF9BE7000000000408C6
:100350003C0000202DE9F04105460E4617460024DA
:1003600007E036F81410284600F07EFAAD1C601C39
:1003700084B2BC42F5DBBDE8F08100BFFEE700BF00
:10038000FEE770477047000010B5044640F2046075
:1003900001F0F6F840F2026001F0F2F840F213705A
:1003A00001F0EEF84FF4C06001F0EAF801225103C9
:1003B000052000F0D9FB012303221821254800F075
:1003C0007DFB022303220421224800F077FB4FF437
:1003D000805303221021204800F070FB4FF480511D
:1003E0001D4800F067FB1D4801F060FA21461B48DC
:1003F00001F0A2F90021194801F048FB002117483B
:1004000001F032FB0021154801F01CFB00211348CC
:1004100001F0D8FA0021114801F0D4FA04210F4864
:1004200001F018FB08210D4801F026FB0B4801F0F4
:10043000ABFA00221146342000F08CFF40F2073165
:10044000064801F0C9FA40F20531044801F0D1FA3A
:1004500010BD00000008014000100140004C0040A9
:1004600070B505460E464FF48051114800F024FB4C
:1004700000240BE0295D0F4801F013FA00BF0721AB
:100480000C4801F086FA0028F9D0641CB442F1D37C
:1004900000BF0621074801F07CFA0028F9D00020AF
:1004A000054908704FF48051014800F003FB70BD0E
:1004B00000100140004C00403000002070477047A1
:1004C00010B51E48006840F001001C49086008464D
:1004D00040681B49084019494860084600681949A6
:1004E0000840164908600846006820F4802008602B
:1004F00008464068144908401049486008460068AA
:1005000020F0A05008600020C8624FF47F0088608F
:1005100000200A49803108600848D0F8900020F097
:1005200080500649903108604FF48000091D086032
:100530000648091D086001F0C5F810BD0010024012
:100540000C00FFE0FFFFF6FEFFFF00DF1030002091
:1005500010B50C490C4801F059FA90B10A4801F065
:100560009BF9C4B20948007809490968884208D251
:10057000084806490978445404480078401C034957
:10058000087010BD05030500004C0040300000203D
:10059000140000200010002010B50C490C4801F098
:1005A00035FA88B10A4801F077F9C4B20948006801
:1005B000B0F5C03F08D208480649096844540548C8
:1005C0000068401C0349086010BD000005030500D9
:1005D00000380140240000200010002000BFFEE78A
:1005E0000FB4054B10B503A9044A029800F018F89F
:1005F00010BC5DF814FB0000910A000838000020D0
:1006000002E008C8121F08C1002AFAD170477047DB
:10061000002001E001C1121F002AFBD17047000039
:100620002DE9FF4F89B09B460446002506E02528AA
:100630000BD05A460B999047641C6D1C20780028FB
:10064000F5D10DB02846BDE8F08F0027B84601224D
:10065000474900E0074314F8013F203B02FA03F04A
:100660000842F7D120782E2819D114F8010F47F04D
:1006700004072A280ED06FF02F022078A0F1300155
:1006800009290CD808EB880102EB410100EB0108B5
:10069000641CF2E70A98641C50F8048B0A902078D6
:1006A0000028CED0642808D0692806D075281ED02E
:1006B0005A460B9990476D1C58E00A994FF00A0969
:1006C00001C90A91002802DA40422D2102E03905D1
:1006D00004D52B218DF82010012103E0F90704D067
:1006E0002021F7E78A4608AE0DE00021FAE70A99D3
:1006F0004FF00A0901C90A91F7E74946FFF776FD6D
:10070000303106F8011D0028F7D1ADEB060000F1ED
:100710002009780701D44FF00108C84502DDA8EB95
:10072000090000E000208046002706E008A85A469D
:10073000C05D0B9990476D1C7F1C5745F6DB04E0AC
:1007400030205A460B9990476D1CB8F10001A8F172
:100750000108F5DC05E016F8010B5A460B999047A5
:100760006D1CB9F10001A9F10109F4DC641C65E715
:10077000092801000146114A12884A434FF0E0233C
:100780005A6100229A611A46126942F001021A6106
:1007900000BF4FF0E022106900F001021AB100F42E
:1007A0008032002AF5D04FF0E022126922F00102D7
:1007B0004FF0E0231A6100229A6170471C0000206C
:1007C00070B50546012400BF00F00CF804466D1E0C
:1007D000012C01D1002DF7D1012C00D10424204699
:1007E00070BD000000200A49C96801F0010109B18B
:1007F00001200CE00649C96801F0100109B103208D
:1008000005E00349C96801F0040101B10220704705
:100810000020024070B50546012400BF00F00CF82E
:1008200004466D1E012C01D1002DF7D1012C00D101
:100830000424204670BD000000200A49C96C01F064
:10084000010109B101200CE00649C96C01F0100159
:1008500009B1032005E00349C96C01F0040101B1AD
:10086000022070470020024070B504460D46002665
:100870002A480088B0F5007F35D92948844219D22A
:100880004FF47020FFF79CFF0646002E43D1254809
:10089000006940F001002349086125804FF4702071
:1008A000FFF78EFF06461F48006920F001001D4932
:1008B000086130E04FF47020FFF7ACFF064656BBEE
:1008C0001848006D40F001001649086525804FF476
:1008D0007020FFF79FFF06461248006D20F00100D0
:1008E0001049086517E04FF47020FFF769FF0646CE
:1008F0008EB90C48006940F001000A490861258062
:100900004FF47020FFF75CFF06460648006920F0B0
:10091000010004490861304670BD0000E0F7FF1F88
:10092000FFFF0708002002400848006940F08000EF
:100930000649086106480088B0F5007F04D90846DA
:10094000006D40F080000865704700000020024004
:10095000E0F7FF1F70B5054639480088B0F5007F05
:100960004CD93848854220D24FF47020FFF728FF39
:100970000446002C61D13448006940F0020032493D
:10098000086108464561006940F04000086100BF09
:1009900000BF4FF47020FFF713FF04462A48006998
:1009A00020F002002849086147E04FF47020FFF76B
:1009B00031FF0446002C40D12348006D40F0020076
:1009C0002149086508464565C06900F0020008B184
:1009D000084645611C48006D40F040001A49086512
:1009E00000BF00BF4FF47020FFF714FF0446164805
:1009F000006D20F00200144908651EE04FF47020DD
:100A0000FFF7DEFE0446C4B90F48006940F002005B
:100A10000D49086108464561006940F040000861E1
:100A200000BF00BF4FF47020FFF7CAFE044606481F
:100A3000006920F0020004490861204670BD0000F2
:100A4000E0F7FF1FFFFF0708002002400C48006985
:100A500000F0800020B10B48094948600A4848600E
:100A60000A480088B0F5007F09D90548006D00F0FC
:100A7000800020B103480249486403484864704735
:100A80000020024023016745AB89EFCDE0F7FF1F4F
:100A900070B504460D46E1B2054800F002FF00BF04
:100AA0000721034800F075FF0028F9D0204670BDEB
:100AB000003801404161704701617047F0B504465C
:100AC00016460025002201F00F0501F0100707B1BE
:100AD000354300201EE0012787401F40C7B1226830
:100AE0004FEA800C0F2707FA0CF7BA43870005FA84
:100AF00007F73A43282904D1012787401F4067613F
:100B000005E0482903D1012787401F402761226063
:100B1000471CB8B20828DED3082022E0012787400E
:100B20001F40E7B16268A0F108074FEA870C0F2762
:100B300007FA0CF7BA43A0F10807BF0005FA07F758
:100B40003A43282904D1012787401F40676105E007
:100B5000482903D1012787401F4027616260471C55
:100B6000B8B21028DAD3F0BD10B503460020DAB1D0
:100B7000022B04D11A4CE06B0843E0632FE0032BF7
:100B800004D1174C206C0843206428E0042B04D1C6
:100B9000134C606C0843606421E0052B1FD1104C9E
:100BA000A06C0843A0641AE0022B04D10C4CE06B4B
:100BB0008843E06313E0032B04D1094C206C884385
:100BC00020640CE0042B04D1054C606C8843606405
:100BD00005E0052B03D1024CA06C8843A06410BD36
:100BE0000000014010B50446206807490840B0F1F4
:100BF000005F08D16068054908602068FFF7E0FAE7
:100C000002480068804710BD0000FE2F2C00002025
:100C10002DE9F05F06460F4690460024B3463D4658
:100C2000A1461CE068784FEA002A287850441FFA51
:100C300080FAAD1C2046611C8CB20E4921F810A030
:100C4000B4F5806F07D100244FF480625846FFF757
:100C50000DFB0BF5006B09F102001FFA80F9C1458D
:100C6000E0D324B1224603495846FFF7FFFABDE816
:100C7000F09F00000090012010B540F2046000F0E9
:100C80007FFC40F2056000F07BFC4FF480430322C0
:100C900010210948FFF712FF0423032210210748FF
:100CA000FFF70CFF4FF480410348FFF703FF0421D7
:100CB0000248FFF701FF10BD001001400014014081
:100CC00010B54FF480410848FFF7F6FE4FF4FA7074
:100CD000FFF750FD4FF480410348FFF7EBFE4FF460
:100CE000FA70FFF747FD10BD0010014000BF00275C
:100CF000BA46BB460026B046B14600F0FBFC00F009
:100D00007DFDFFF7B9FF4FF4E130FFF73DFB90E1C8
:100D1000FFF7D6FFC748006800287CD0C5480168A7
:100D2000C5A0FFF75DFCC3480068834574D1C14886
:100D30000668B8F1000F70D1052EFCD1C4480078C8
:100D4000AA2817D1C2484078AA2813D1C048807871
:100D5000AA280FD1BE48C078AA280BD1BC48007978
:100D6000AA2807D101274FF001080026B9A0FFF7F4
:100D700037FCE3E0B6480078BB2817D1B448407888
:100D8000BB2813D1B2488078BB280FD1B048C078B7
:100D9000BB280BD1AE480079BB2807D102274FF002
:100DA00001080026ABA0FFF71BFCC7E0B9F1010F5B
:100DB00019D1A7480078AA2815D1A5484078AA28B3
:100DC00011D1A3488078AA280DD1A148C078AA28BB
:100DD00009D19F480079112805D14FF00009AB488F
:100DE000FFF700FFAAE0BAF1010F59D19848007847
:100DF000BB2855D196484078BB2851D1944880787B
:100E0000BB284DD19248C078BB2849D19048007981
:100E1000112845D102E09CE098E074E09CA0FFF727
:100E2000DFFB31469EA0FFF7DBFB31468848FFF72A
:100E300017FB4FF47A70FFF79DFC4FF47A70FFF7C1
:100E400099FC4FF47A70FFF795FC4FF47A70FFF736
:100E500091FC4FF47A70FFF78DFC96A0FFF7C0FB72
:100E600000240BE099496018FFF7FCF90546784922
:100E70000D552912764A601C1154A41C9448006830
:100E80008442EFD39248016892A0FFF7A9FB9048F3
:100E900001686F48FFF7E4FA94A0FFF7A1FB4DE06B
:100EA0006B480078AA2810D169484078AA280CD14C
:100EB00067488078AA2808D16548C078AA2804D154
:100EC00063480079222800D138E061480078BB28C7
:100ED00010D15F484078BB280CD15D488078BB2892
:100EE00008D15B48C078BB2804D159480079222832
:100EF00000D123E00020854908707549086084A06E
:100F0000FFF76EFB1AE0B8F1010F13D10A2E11D9C9
:100F100001207E4908704FF00008464800686C497F
:100F2000086080A0FFF75CFB6948016885A0FFF7B7
:100F300057FB03E0002688A0FFF752FB4FF0000BA1
:100F400000203C490860FFF7EFFC02E03948D0F888
:100F500000B06E480078002852D000206B4908701D
:100F60005B480068002848D083A0FFF739FB884819
:100F7000406800F07F40B0F1006F3AD1012F07D1F7
:100F80005348334902684148FFF742FEB9460CE036
:100F9000022F0AD17FA0FFF723FB4D482C4902689E
:100FA0004A48FFF735FE4FF0010A81A0FFF718FB12
:100FB0004FF47A70FFF7DEFB8BA0FFF711FB4FF4C5
:100FC0007A70FFF7D7FB96A0FFF70AFB4FF47A7011
:100FD000FFF7D0FBA0A0FFF703FB4FF47A70FFF7F9
:100FE000C9FBABA0FFF7FCFA4FF47A70FFF7C2FB26
:100FF00006E0B5A0FFF7F4FA02E0C3A0FFF7F0FAAD
:10100000B9F1000F15D0C6A0FFF7EAFA0A20FFF7E2
:10101000B1FB1E48406800F07F40B0F1006F05D181
:101020004FF000091948FFF7DDFD02E0C3A0FFF70C
:10103000D7FA6DE62400002055534152545F5258B0
:101040005F434E54203D202564200D0A000000001F
:1010500000100020526561647920746F207265630E
:10106000696576652061707020636F64652C706CB3
:10107000656173652061646420612062696E6172DC
:10108000792066696C65210D0A0000000080000867
:10109000666C61736832207570646174610D0A005A
:1010A0005278446174614C656E677468203D2025F8
:1010B00064000000656E6420616E6420636865638F
:1010C0006B207273343835200D0A000000000208CE
:1010D00014000020417070436F64654C656E677446
:1010E00068203D2025640D0A00000000656E642024
:1010F000616E6420636865636B20666C617368323F
:10110000207570646174610D0A00000028000020E1
:10111000436F6D6D616E64204572726F72210D0AAE
:101120000000000041707020636F64652072656389
:101130006965766520636F6D706C657465210D0A55
:1011400000000000436F64652073697A653A256486
:1011500042797465730D0A004E6F7420636F72726A
:101160006563742066696C65206F7220636F6D6DB6
:10117000616E64210D0A00005570646174696E67C8
:101180002061707020636F64652E2E2E0D0A0000A2
:1011900000100020616C7265616479207772697457
:1011A0006520746F20666C61736832200D0A000040
:1011B000436F64652055706461746520436F6D7082
:1011C0006C657465214A756D7020746F2041707074
:1011D00020436F646520496E2035207365636F6E10
:1011E00064210D0A00000000436F6465205570649F
:1011F00061746520436F6D706C657465214A756D0F
:101200007020746F2041707020436F646520496EB8
:101210002034207365636F6E64210D0A00000000A6
:10122000436F64652055706461746520436F6D7011
:101230006C657465214A756D7020746F2041707003
:1012400020436F646520496E2033207365636F6EA1
:1012500064210D0A00000000436F6465205570642E
:1012600061746520436F6D706C657465214A756D9E
:101270007020746F2041707020436F646520496E48
:101280002032207365636F6E64210D0A0000000038
:10129000436F64652055706461746520436F6D70A1
:1012A0006C657465214A756D7020746F2041707093
:1012B00020436F646520496E2031207365636F6E33
:1012C00064210D0A00000000436F6465207570649E
:1012D000617465206661696C656421506C65617339
:1012E0006520636865636B206C6567616C69747900
:1012F000206F66207468652062696E61727920666D
:10130000696C65210D0A00004E6F20436F646520F3
:1013100043616E20557064617465210D0A00000000
:1013200053746172742072756E6E696E672061709D
:101330007020636F6465210D0A0000004170702009
:10134000636F646520697320696C6C6567616C21EB
:101350000D0A00002DE9F04103460D461646002413
:101360000027A0462448006800F4E060B0F5A06FB4
:1013700015D006DCB0F5407F18D0B0F5806F19D1DC
:1013800010E0B0F5C06F06D0B0F5E06F12D10027C5
:101390004FF0040815E001274FF0030811E0022781
:1013A000B8460EE003274FF001080AE004274FF08B
:1013B000000806E04FF4A06000F022F80227B846CB
:1013C00000BF00BFC7F1040005FA00F4C8F1040132
:1013D0000F20C8403040044324010848C45403F09F
:1013E0001F01012088405911890001F1E021C1F855
:1013F0000001BDE8F08100000CED00E000E400E039
:1014000002490143024A1160704700000000FA05DA
:101410000CED00E02DE9F14F8DB000200B9051A0B4
:1014200090E8004CC068CDE905BECDF810A007904B
:101430000FF2341ADAE9000ACDE9020A0FF2281A8B
:10144000DAE9000ACDE9000A4A484068C0F38100A1
:101450000C900C9820B1012804D002284ED103E052
:1014600045494DE044494BE04248406800F480392A
:10147000B9F5803F26D1404B3E48C06A00F4803029
:101480000A900A98B0F5803F12D13A48C06AC0F37A
:101490000310401C08903748C06AC0F30320871C23
:1014A000112F00D114270898B3FBF0F000FB07F3CD
:1014B0003048C06A00F00F00401C09900998B3FB47
:1014C000F0F300E02D4B2B484068C0F383422948DD
:1014D000406800F0005008B142F010020D2A05D11A
:1014E00003EB4300400000EB530106E00F2A01D25A
:1014F000921C00E0521C03FB02F101E01E4900BFF8
:1015000000BF1C484068C0F3031504A8465D21FADB
:1015100006F418484068C0F3022502A8465D24FA84
:1015200006FC14484068C0F3C2251DF8056024FA83
:1015300006F80D9830B1012806D0022806D00328FD
:101540000AD106E00B9108E00B9406E0CDF82CC020
:1015500003E0CDF82C8000E000BF00BF0B980EB078
:10156000BDE8F08F0000000000000000010203044D
:10157000060708090010024000127A0000093D0029
:10158000064A02EB9011096800F01F0301229A40FD
:101590001143024B03EB90121160704700100240A0
:1015A000064A02EB9011096800F01F0301229A40DD
:1015B0009143024B03EB9012116070470010024000
:1015C000064A02EB9011096800F01F0301229A40BD
:1015D0001143024B03EB9012116070470010024060
:1015E00000200021334A126842F48032314B1A60E5
:1015F00000BF401C2F4A126802F4003119B94FF69F
:10160000FF729042F5D12B4A126802F400320AB9F7
:1016100000BFFEE7274A5268264B5A601A465268B6
:101620005A601A46526842F480625A601A465268FA
:10163000214B1A401F4B5A601A46526842F424123A
:101640005A601A46D26A1D4B1A401A4BDA621A4681
:10165000D26A1B4B1A43174BDA621A46126842F0E1
:1016600080621A6000BF134A126802F00062002A0A
:10167000F9D0104A126842F080720E4B1A6000BF17
:101680000C4A126802F00072002AF9D0094A526826
:1016900022F00302074B5A601A46526842F00202D7
:1016A0005A6000BF034A526802F00802002AF9D0CB
:1016B0007047000000100240FFFFC0DF00F0FEFF97
:1016C0003108010010B5FFF78BFF10BD042808D1C9
:1016D0004FF0E021096941F004014FF0E02211616F
:1016E00007E04FF0E021096921F004014FF0E0220A
:1016F0001161704710B56FF00400FFF7E7FF0A486B
:1017000000680A49B0FBF1F0094908700846007802
:1017100000EB4001C1EBC0104FF6FF7101EAC000C1
:101720000449088010BD00003400002000127A0037
:101730001E0000201C0000202DE9F04704460D4645
:101740000027B846B94600262A49601A8C4235D08F
:101750000CDC29482044E8B1B0F5806F1FD0B0F50B
:10176000006F21D0B0F5406F32D122E0B0F5806F2C
:1017700029D0B0F5404F03D0B0F5784F28D104E020
:101780000320FFF747FE074623E00320FFF742FE52
:1017900007461EE00220FFF73DFE074619E0022043
:1017A000FFF738FE074614E00220FFF733FE074636
:1017B0000FE00220FFF72EFE07460AE00220FFF7A7
:1017C00029FE074605E00220FFF724FE074600E059
:1017D00000BF00BF07EB5500B0FBF5F64FF6F07009
:1017E00006EA000806F00F0948EA0900A060BDE813
:1017F000F08700000078004000BCFFBF10B540F249
:101800000260FFF7BDFE40F20E60FFF7B9FE4FF435
:101810000073032218211E48FFF750F94FF480632C
:10182000032204211A48FFF749F91A4800F03EF84C
:101830004FF4E1311748FFF77FFF0021154800F012
:1018400025F90021134800F00FF90021114800F09C
:10185000F9F800210F4800F0B5F800210D4800F01C
:10186000A7F804210B4800F0F5F80821094800F01A
:1018700003F9084800F088F840F20531054800F007
:10188000B8F8002211462520FFF764FD10BD0000C6
:10189000000801400038014001464868C0F30800D4
:1018A0007047C1F3080242607047000010B504465B
:1018B0003349601A8C424DD00CDC32482044E0B1F0
:1018C000B0F5806F22D0B0F5006F31D0B0F5406F29
:1018D00052D136E0B0F5806F45D0B0F5404F03D01F
:1018E000B0F5784F48D11AE040F20E30FFF768FEAD
:1018F00040F20E30FFF754FE3FE040F21140FFF798
:101900005FFE40F21140FFF74BFE36E040F212401E
:10191000FFF756FE40F21240FFF742FE2DE041F67F
:101920001850FFF74DFE41F61850FFF739FE24E03E
:1019300040F21340FFF744FE40F21340FFF730FE41
:101940001BE040F21440FFF73BFE40F21440FFF76B
:1019500027FE12E041F61E60FFF732FE41F61E60E0
:10196000FFF71EFE09E041F61F60FFF729FE41F672
:101970001F60FFF715FE00E000BF00BF10BD0000B4
:101980000078004000BCFFBFC16841F40051C16055
:10199000704710B5024602EB9110006801F01F0479
:1019A0000123A340184008B1012010BD0020FCE72E
:1019B000426922F400724261426901F400731A43E1
:1019C00042617047426922F480724261426901F4C7
:1019D00080731A434261704710B500EB9112126890
:1019E00001F01F040123A3409A4300EB91131A60F6
:1019F00010BD10B500EB9112126801F01F04012315
:101A0000A3401A4300EB91131A6010BD70B5024653
:101A100000230024C1F38910105801F01F0601258E
:101A2000B54000EA050302EB91500068C1F304469B
:101A30000125B54000EA050414B10BB1012070BDC9
:101A40000020FCE7C26822F4C062C260C2680A4398
:101A5000C2607047C26822F00402C260C26801F02E
:101A600004031A43C2607047026922F440520261C3
:101A700002690A4302617047C26822F00802C2602C
:101A8000C26801F008031A43C2607047C26822F4BA
:101A90008052C260C2680A43C2607047BC1A000824
:101AA000000000203C00000000060008F81A0008B2
:101AB0003C000020C4B70100100600080101020329
:101AC0000400000000000000000000000000000012
:101AD0000000000000000000000000000000000006
:101AE00000000000000000000000000000000000F6
:081AF000000E270700000000B2
:04000005080001A945
:00000001FF
